:020000040800F2
:100000002002002001010008050100080701000886
:10001000090100080B0100080D01000800000000A4
:100020000000000000000000000000000F010008B8
:10003000110100080000000013010008150100086C
:100040001701000817010008170100081701000830
:100050001701000817010008FD070008390800080B
:1000600073080008170100081701000817010008AD
:100070001701000817010008170100081701000800
:1000800017010008170100081701000817010008F0
:1000900017010008170100081701000817010008E0
:1000A00017010008170100081701000817010008D0
:1000B000170100089109000817010008170100083E
:1000C00017010008170100081701000817010008B0
:1000D00017010008170100081701000817010008A0
:1000E000170100081701000817010008DFF80CD0FD
:1000F00000F0FAFC00480047170300082002002027
:1001000005480047FEE7FEE7FEE7FEE7FEE7FEE7FD
:10011000FEE7FEE7FEE7FEE7ED00000870B5002011
:100120009649086004466AE0204604EBD071491005
:10013000B4EB410112D10120904908609048006859
:1001400020F47F408E4908600846006840F44F4024
:1001500008604FF0030000F037F94EE000208749B7
:100160000860054647E035B1012D12D0062D20D09C
:10017000072D3CD12BE0834800780A2190FBF1F059
:10018000C6B23146284600F0D9FA032000F01CF927
:100190002EE07C4800780A2190FBF1F201FB12006E
:1001A000C6B23146284600F0C9FA032000F00CF927
:1001B0001EE0754800780A2190FBF1F0C6B2314686
:1001C000284600F0BBFA032000F0FEF810E06E486D
:1001D00000780A2190FBF1F201FB1200C6B2314611
:1001E000284600F0ABFA032000F0EEF800E000BF74
:1001F00000BF681CC5B2082DB5DB601CC4B2C82C9A
:1002000092DB60480078401C5E4908705E480078C8
:10021000401E5D49087070BD70B5002057490860E8
:1002200004466BE0204604EBD0714910B4EB410169
:1002300012D10120514908605148006820F47F40E4
:100240004F4908600846006840F4734008604FF06A
:10025000030000F0B9F84FE0002048490860054667
:1002600048E0012D06D0022D12D0052D20D0062DFC
:100270003CD12BE0444800780A2190FBF1F0C6B253
:100280003146284600F05AFA032000F09DF82EE08F
:100290003D4800780A2190FBF1F201FB1200C6B242
:1002A0003146284600F04AFA032000F08DF81EE09F
:1002B000344800780A2190FBF1F0C6B23146284656
:1002C00000F03CFA032000F07FF810E02D480078A1
:1002D0000A2190FBF1F201FB1200C6B2314628461A
:1002E00000F02CFA032000F06FF800E000BF00BF20
:1002F000681CC5B2082DB4DB601CC4B2C82C91DBED
:1003000020480078401C1F4908701F480078401E94
:100310001D49087070BD062000F06CF9482000F0FF
:1003200037F800F0C1F900F0C3FA26E0174800786A
:1003300090B9FFF7F3FE14480078F0B94FF49670C7
:1003400000F042F805201049087000200D4908709F
:1003500001200E49087010E0FFF75EFF0A480078A0
:1003600058B94FF4967000F02FF805200649087030
:1003700000200449087005490870D7E78C812142A4
:100380000C180140000000200100002002000020A5
:100390004FF0E021096921F004014FF0E0221161E2
:1003A000C21700EB5272C2F3C702224B1A701946F1
:1003B000097801EB4102C2EBC1114FF6FF7202EA6C
:1003C000C1011D4A1180704701461B4A12884A43E9
:1003D0004FF0E0235A6100229A6101221A6100BFA6
:1003E0004FF0E022106910F0010F02D010F4803FAE
:1003F000F6D000224FF0E0231A619A61704701465F
:100400000C4A12784A434FF0E0235A6100229A6165
:1004100001221A6100BF4FF0E022106910F0010FB5
:1004200002D010F4803FF6D000224FF0E0231A6192
:100430009A61704704000020060000208E4A0A409E
:1004400002438E4B1A6070470146072323EA0102DC
:1004500012028A4B1B1D18684FF6FF031840884B89
:1004600018431043854B1B1D186070472DE9F0475A
:100470008046894614461D462046E11704EB9171DB
:10048000C1F3870AE11704EB91718910A4EB810194
:10049000CFB2042000EBC700C7B22846FFF7D4FF55
:1004A000C5F1040008FA00F60F20284100EA09000F
:1004B000064306F00F06202C0CDA724801684FF054
:1004C000010000FA04F041EA00014FF0E020C0F81A
:1004D00000110DE06C480068A4F120014FF001020A
:1004E00002FA01F240EA02004FF0E021C1F80401F3
:1004F000664850F82A0006FA07F140EA010063490D
:1005000041F82A00BDE8F08770B504460B46CE17C7
:1005100001EB9676C6F38700CE1701EB9676B61000
:10052000A1EB8606B606350E594B9B6943F00103D5
:10053000574EB3614FEAB63353F820300F26AE4022
:10054000B343544E46F82030334653F8203004FA73
:1005500005F61E434F4B43F820604F4B1B680126A6
:100560008E4033434C4E336012F0010F08D04A4B9B
:100570000C331B6801268E403343474E0C363360E4
:1005800012F0020F08D0444B08331E6801238B4041
:100590001E43414B08331E6070BD00B500203C492E
:1005A0000861C8601420486100208861C86108465D
:1005B000006840F00100086008464068374908407C
:1005C00033494860084600683549084030490860AA
:1005D0000846006820F4802008600846406820F43F
:1005E000FE0048600020886000214FF00060FFF7A7
:1005F00025FF00BD30B504460025FFF7CEFF244897
:10060000006840F480302249086000BF204800683C
:10061000400CFBD04FF480601D494860A01EC4B25E
:100620000846406840EA844048600846406840F414
:10063000803048601B48006840F03200194908606B
:100640001348006840F080701149086000BF1048EE
:100650000068400EFBD00E48406840F002000C4994
:10066000486005E00A484068C0F3870505F00305C7
:10067000022DF7D130BD000080FFFF1F08ED00E024
:100680000000FA0500E100E004E100E000E400E021
:100690000010024008000140000401400000FFF883
:1006A000FFFFF6FE002002404B48806940F0010049
:1006B000494988610846806940F008008861084619
:1006C000806940F0400088614448406840F0007014
:1006D00042494860424800686FF30F004049086093
:1006E0000846006843F2333108433D4908603C48FE
:1006F0000C30006840F0FF0039490C31086039487F
:1007000000680020374908600846006840F0333030
:100710000860344808300068324908310860704782
:1007200030490831096821F47F412E4A08321160AE
:100730001146096841EA00211160704730B503464F
:100740000C46184603EBD0714910A3EB4101264A31
:100750001160194603EBD1724FEA620000EBD072D0
:100760004FEA6202A0EB4202204DC5F884211846F0
:100770004FEAE37103EB91714FEAA1011C4A11604A
:100780001C49085DFFF7CCFF30BD30B503460C4671
:10079000184603EBD0714910A3EB4101124A1160D6
:1007A000194603EBD1724FEA620000EBD0724FEAB8
:1007B0006202A0EB42020D4DC5F8842118464FEAB3
:1007C000E37103EB91714FEAA101094A11600A49F3
:1007D000085DFFF7A5FF30BD00100240000001409A
:1007E000000C014004180140808121420080214218
:1007F00088812142080000201200002010B50A2044
:10080000FFF7E2FD4548006890B9002044490870B0
:100810004449087044480078401C43490870084621
:100820000078012804DB41480078401C3F490870EB
:1008300001203F49086010BD10B50D20FFF7C4FD31
:100840003C48006888B93648007828B937480078AD
:10085000401E3649087008E031480078012804D16C
:1008600035480078401E344908700220304908603D
:1008700010BD10B50A20FFF7A7FD3048006898B9F1
:100880000120274908700020274908702548007872
:10089000401C2449087008460078012804DB2648DB
:1008A0000078401C2449087004202149086010BDCC
:1008B00010B52348806940F0100021498861214823
:1008C00000686FF30B001F4908600846006840F697
:1008D000880108431B490860012200210220FFF71C
:1008E00013FE012211460220FFF70EFE0122022113
:1008F0000846FFF709FE0223062219461846FFF7AD
:10090000B5FD0223072201211846FFF7AFFD0223A0
:10091000082200211846FFF7A9FD10BD0001224260
:10092000030000201D0000201C000020000000200B
:100930001404014004012242010000200801224267
:10094000001002400010014070B505460C465F489B
:10095000C06940F002005D49C8615D480580001F24
:1009600004805B482038008840F001005849203955
:10097000088057482C38008840F0010054492C3931
:10098000088002231D2203210120FFF76FFD70BDA7
:100990004F481C38008810F0010F16D04D480078E1
:1009A000632809DA4C480078401C4B4908704948D4
:1009B0000078401C4749087048480078002804DD4A
:1009C00046480078401E4549087041481C38008858
:1009D00020F001003E491C390880704741F61F4154
:1009E00042F20F70FFF7B0FF6EE000246AE020468D
:1009F00004EBD0714910B4EB410112D10120384908
:100A000008603848006820F47F403649086008468E
:100A1000006840F44F4008604FF00300FFF7D4FC3B
:100A20004EE000202E490860054647E035B1012D13
:100A300012D0062D20D0072D3CD12BE0264800787F
:100A40000A2190FBF1F0C6B231462846FFF776FE48
:100A50000320FFF7B9FC2EE01F4800780A2190FB25
:100A6000F1F201FB1200C6B231462846FFF766FEDE
:100A70000320FFF7A9FC1EE0184800780A2190FB2C
:100A8000F1F0C6B231462846FFF758FE0320FFF7C3
:100A90009BFC10E0114800780A2190FBF1F201FB69
:100AA0001200C6B231462846FFF748FE0320FFF782
:100AB0008BFC00E000BF00BF681CC5B2082DB5DB91
:100AC000601CC4B2642C92DB8FE70000001002406F
:100AD0002C040040000000201E0000200100002027
:100AE0008C8121420C180140064C074D06E0E0685D
:100AF00040F0010394E8070098471034AC42F6D365
:100B0000FFF7F8FA2C0B00084C0B000802E008C8AD
:100B1000121F08C1002AFAD170477047002001E077
:100B200001C1121F002AFBD1704700004C0B0008C6
:100B300000000020200000000C0B00086C0B0008D7
:100B400020000020000200001C0B0008000500002F
:100B5000000000003F065B4F666D7D077F6FBF861C
:0C0B6000DBCFE6EDFD87FFEF000000009A
:04000005080000ED02
:00000001FF
